{
  "_format": "hh-sol-artifact-1",
  "contractName": "BuySell",
  "sourceName": "contracts/BuySell.sol",
  "abi": [
    {
      "inputs": [],
      "stateMutability": "nonpayable",
      "type": "constructor"
    },
    {
      "inputs": [],
      "name": "AllowanceError",
      "type": "error"
    },
    {
      "inputs": [
        {
          "internalType": "address",
          "name": "tokenAddress",
          "type": "address"
        }
      ],
      "name": "NotSupportToken",
      "type": "error"
    },
    {
      "inputs": [
        {
          "internalType": "address",
          "name": "owner",
          "type": "address"
        }
      ],
      "name": "OwnableInvalidOwner",
      "type": "error"
    },
    {
      "inputs": [
        {
          "internalType": "address",
          "name": "account",
          "type": "address"
        }
      ],
      "name": "OwnableUnauthorizedAccount",
      "type": "error"
    },
    {
      "inputs": [
        {
          "internalType": "address",
          "name": "token",
          "type": "address"
        }
      ],
      "name": "SafeERC20FailedOperation",
      "type": "error"
    },
    {
      "anonymous": false,
      "inputs": [
        {
          "indexed": false,
          "internalType": "address",
          "name": "tokenAddress",
          "type": "address"
        }
      ],
      "name": "AddSupportToken",
      "type": "event"
    },
    {
      "anonymous": false,
      "inputs": [
        {
          "indexed": false,
          "internalType": "uint256",
          "name": "amount",
          "type": "uint256"
        },
        {
          "indexed": false,
          "internalType": "address",
          "name": "tokenAddress",
          "type": "address"
        }
      ],
      "name": "Deposit",
      "type": "event"
    },
    {
      "anonymous": false,
      "inputs": [
        {
          "indexed": true,
          "internalType": "address",
          "name": "previousOwner",
          "type": "address"
        },
        {
          "indexed": true,
          "internalType": "address",
          "name": "newOwner",
          "type": "address"
        }
      ],
      "name": "OwnershipTransferred",
      "type": "event"
    },
    {
      "anonymous": false,
      "inputs": [
        {
          "indexed": false,
          "internalType": "uint256",
          "name": "amount",
          "type": "uint256"
        },
        {
          "indexed": false,
          "internalType": "address",
          "name": "tokenAddress",
          "type": "address"
        },
        {
          "indexed": false,
          "internalType": "address",
          "name": "toAddress",
          "type": "address"
        }
      ],
      "name": "Withdraw",
      "type": "event"
    },
    {
      "inputs": [
        {
          "internalType": "address",
          "name": "_tokenAddress",
          "type": "address"
        }
      ],
      "name": "addSupportToken",
      "outputs": [],
      "stateMutability": "nonpayable",
      "type": "function"
    },
    {
      "inputs": [
        {
          "components": [
            {
              "internalType": "uint256",
              "name": "amount",
              "type": "uint256"
            },
            {
              "internalType": "address",
              "name": "tokenAddress",
              "type": "address"
            }
          ],
          "internalType": "struct DepositParams",
          "name": "params",
          "type": "tuple"
        }
      ],
      "name": "deposit",
      "outputs": [],
      "stateMutability": "nonpayable",
      "type": "function"
    },
    {
      "inputs": [],
      "name": "owner",
      "outputs": [
        {
          "internalType": "address",
          "name": "",
          "type": "address"
        }
      ],
      "stateMutability": "view",
      "type": "function"
    },
    {
      "inputs": [],
      "name": "renounceOwnership",
      "outputs": [],
      "stateMutability": "nonpayable",
      "type": "function"
    },
    {
      "inputs": [
        {
          "internalType": "address",
          "name": "newOwner",
          "type": "address"
        }
      ],
      "name": "transferOwnership",
      "outputs": [],
      "stateMutability": "nonpayable",
      "type": "function"
    },
    {
      "inputs": [
        {
          "components": [
            {
              "internalType": "uint256",
              "name": "amount",
              "type": "uint256"
            },
            {
              "internalType": "address",
              "name": "tokenAddress",
              "type": "address"
            },
            {
              "internalType": "address",
              "name": "toAddress",
              "type": "address"
            }
          ],
          "internalType": "struct WithdrawParams",
          "name": "params",
          "type": "tuple"
        }
      ],
      "name": "withdraw",
      "outputs": [],
      "stateMutability": "nonpayable",
      "type": "function"
    }
  ],
  "bytecode": "0x608060405234801561001057600080fd5b5033600073ffffffffffffffffffffffffffffffffffffffff168173ffffffffffffffffffffffffffffffffffffffff16036100845760006040517f1e4fbdf700000000000000000000000000000000000000000000000000000000815260040161007b919061019e565b60405180910390fd5b6100938161009960201b60201c565b506101b9565b60008060009054906101000a900473ffffffffffffffffffffffffffffffffffffffff169050816000806101000a81548173ffffffffffffffffffffffffffffffffffffffff021916908373ffffffffffffffffffffffffffffffffffffffff1602179055508173ffffffffffffffffffffffffffffffffffffffff168173ffffffffffffffffffffffffffffffffffffffff167f8be0079c531659141344cd1fd0a4f28419497f9722a3daafe3b4186f6b6457e060405160405180910390a35050565b600073ffffffffffffffffffffffffffffffffffffffff82169050919050565b60006101888261015d565b9050919050565b6101988161017d565b82525050565b60006020820190506101b3600083018461018f565b92915050565b610dac806101c86000396000f3fe608060405234801561001057600080fd5b50600436106100625760003560e01c80631c68bf001461006757806324e2ad3414610083578063715018a61461009f5780638da5cb5b146100a9578063f2fde38b146100c7578063f9a51245146100e3575b600080fd5b610081600480360381019061007c91906109d2565b6100ff565b005b61009d60048036038101906100989190610a23565b6102f7565b005b6100a76104ef565b005b6100b1610503565b6040516100be9190610a5f565b60405180910390f35b6100e160048036038101906100dc91906109d2565b61052c565b005b6100fd60048036038101906100f89190610a99565b6105b2565b005b610107610679565b600073ffffffffffffffffffffffffffffffffffffffff168173ffffffffffffffffffffffffffffffffffffffff1603610176576040517f08c379a000000000000000000000000000000000000000000000000000000000815260040161016d90610b23565b60405180910390fd5b600160008273ffffffffffffffffffffffffffffffffffffffff1673ffffffffffffffffffffffffffffffffffffffff16815260200190815260200160002060009054906101000a900460ff1615610203576040517f08c379a00000000000000000000000000000000000000000000000000000000081526004016101fa90610b8f565b60405180910390fd5b60018060008373ffffffffffffffffffffffffffffffffffffffff1673ffffffffffffffffffffffffffffffffffffffff16815260200190815260200160002060006101000a81548160ff0219169083151502179055506002819080600181540180825580915050600190039060005260206000200160009091909190916101000a81548173ffffffffffffffffffffffffffffffffffffffff021916908373ffffffffffffffffffffffffffffffffffffffff1602179055507f883922dce74c7da120a6bf7a478f8faeaebdce7c4c49561ea9b9e682bec7aecf816040516102ec9190610a5f565b60405180910390a150565b6001600082602001602081019061030e91906109d2565b73ffffffffffffffffffffffffffffffffffffffff1673ffffffffffffffffffffffffffffffffffffffff16815260200190815260200160002060009054906101000a900460ff16610395576040517f08c379a000000000000000000000000000000000000000000000000000000000815260040161038c90610bfb565b60405180910390fd5b60008160200160208101906103aa91906109d2565b905060008173ffffffffffffffffffffffffffffffffffffffff1663dd62ed3e33306040518363ffffffff1660e01b81526004016103e9929190610c1b565b602060405180830381865afa158015610406573d6000803e3d6000fd5b505050506040513d601f19601f8201168201806040525081019061042a9190610c7a565b9050826000013581101561046a576040517f689c227100000000000000000000000000000000000000000000000000000000815260040160405180910390fd5b61049b333085600001358573ffffffffffffffffffffffffffffffffffffffff16610700909392919063ffffffff16565b7f4bcc17093cdf51079c755de089be5a85e70fa374ec656c194480fbdcda224a5383600001358460200160208101906104d491906109d2565b6040516104e2929190610cb6565b60405180910390a1505050565b6104f7610679565b6105016000610782565b565b60008060009054906101000a900473ffffffffffffffffffffffffffffffffffffffff16905090565b610534610679565b600073ffffffffffffffffffffffffffffffffffffffff168173ffffffffffffffffffffffffffffffffffffffff16036105a65760006040517f1e4fbdf700000000000000000000000000000000000000000000000000000000815260040161059d9190610a5f565b60405180910390fd5b6105af81610782565b50565b6105ba610679565b60008160200160208101906105cf91906109d2565b90506106128260400160208101906105e791906109d2565b83600001358373ffffffffffffffffffffffffffffffffffffffff166108469092919063ffffffff16565b7fa51bb7c2c2049ab09fbff5561211a4ee34b3b4cee74c42f1bce5461cd4ef3f8d826000013583602001602081019061064b91906109d2565b84604001602081019061065e91906109d2565b60405161066d93929190610cdf565b60405180910390a15050565b6106816108c5565b73ffffffffffffffffffffffffffffffffffffffff1661069f610503565b73ffffffffffffffffffffffffffffffffffffffff16146106fe576106c26108c5565b6040517f118cdaa70000000000000000000000000000000000000000000000000000000081526004016106f59190610a5f565b60405180910390fd5b565b61077c848573ffffffffffffffffffffffffffffffffffffffff166323b872dd86868660405160240161073593929190610d16565b604051602081830303815290604052915060e01b6020820180517bffffffffffffffffffffffffffffffffffffffffffffffffffffffff83818316178352505050506108cd565b50505050565b60008060009054906101000a900473ffffffffffffffffffffffffffffffffffffffff169050816000806101000a81548173ffffffffffffffffffffffffffffffffffffffff021916908373ffffffffffffffffffffffffffffffffffffffff1602179055508173ffffffffffffffffffffffffffffffffffffffff168173ffffffffffffffffffffffffffffffffffffffff167f8be0079c531659141344cd1fd0a4f28419497f9722a3daafe3b4186f6b6457e060405160405180910390a35050565b6108c0838473ffffffffffffffffffffffffffffffffffffffff1663a9059cbb8585604051602401610879929190610d4d565b604051602081830303815290604052915060e01b6020820180517bffffffffffffffffffffffffffffffffffffffffffffffffffffffff83818316178352505050506108cd565b505050565b600033905090565b600080602060008451602086016000885af1806108f0576040513d6000823e3d81fd5b3d92506000519150506000821461090b576001811415610927565b60008473ffffffffffffffffffffffffffffffffffffffff163b145b1561096957836040517f5274afe70000000000000000000000000000000000000000000000000000000081526004016109609190610a5f565b60405180910390fd5b50505050565b600080fd5b600073ffffffffffffffffffffffffffffffffffffffff82169050919050565b600061099f82610974565b9050919050565b6109af81610994565b81146109ba57600080fd5b50565b6000813590506109cc816109a6565b92915050565b6000602082840312156109e8576109e761096f565b5b60006109f6848285016109bd565b91505092915050565b600080fd5b600060408284031215610a1a57610a196109ff565b5b81905092915050565b600060408284031215610a3957610a3861096f565b5b6000610a4784828501610a04565b91505092915050565b610a5981610994565b82525050565b6000602082019050610a746000830184610a50565b92915050565b600060608284031215610a9057610a8f6109ff565b5b81905092915050565b600060608284031215610aaf57610aae61096f565b5b6000610abd84828501610a7a565b91505092915050565b600082825260208201905092915050565b7f546f6b656e20616464726573732063616e6e6f74206265207a65726f00000000600082015250565b6000610b0d601c83610ac6565b9150610b1882610ad7565b602082019050919050565b60006020820190508181036000830152610b3c81610b00565b9050919050565b7f4475706c696361746520546f6b656e0000000000000000000000000000000000600082015250565b6000610b79600f83610ac6565b9150610b8482610b43565b602082019050919050565b60006020820190508181036000830152610ba881610b6c565b9050919050565b7f496e76616c696420546f6b656e00000000000000000000000000000000000000600082015250565b6000610be5600d83610ac6565b9150610bf082610baf565b602082019050919050565b60006020820190508181036000830152610c1481610bd8565b9050919050565b6000604082019050610c306000830185610a50565b610c3d6020830184610a50565b9392505050565b6000819050919050565b610c5781610c44565b8114610c6257600080fd5b50565b600081519050610c7481610c4e565b92915050565b600060208284031215610c9057610c8f61096f565b5b6000610c9e84828501610c65565b91505092915050565b610cb081610c44565b82525050565b6000604082019050610ccb6000830185610ca7565b610cd86020830184610a50565b9392505050565b6000606082019050610cf46000830186610ca7565b610d016020830185610a50565b610d0e6040830184610a50565b949350505050565b6000606082019050610d2b6000830186610a50565b610d386020830185610a50565b610d456040830184610ca7565b949350505050565b6000604082019050610d626000830185610a50565b610d6f6020830184610ca7565b939250505056fea26469706673582212200a10bce3543791c44c74a128d5957a834b235cf83814c0ef944b4b4aa40b326f64736f6c63430008180033",
  "linkReferences": {},
  "deployedLinkReferences": {}
}