{
  "_format": "hh-sol-artifact-1",
  "contractName": "BuySell",
  "sourceName": "contracts/BuySell.sol",
  "abi": [
    {
      "inputs": [],
      "stateMutability": "nonpayable",
      "type": "constructor"
    },
    {
      "inputs": [],
      "name": "AllowanceError",
      "type": "error"
    },
    {
      "inputs": [
        {
          "internalType": "address",
          "name": "owner",
          "type": "address"
        }
      ],
      "name": "OwnableInvalidOwner",
      "type": "error"
    },
    {
      "inputs": [
        {
          "internalType": "address",
          "name": "account",
          "type": "address"
        }
      ],
      "name": "OwnableUnauthorizedAccount",
      "type": "error"
    },
    {
      "inputs": [
        {
          "internalType": "address",
          "name": "token",
          "type": "address"
        }
      ],
      "name": "SafeERC20FailedOperation",
      "type": "error"
    },
    {
      "anonymous": false,
      "inputs": [
        {
          "indexed": false,
          "internalType": "address",
          "name": "tokenAddress",
          "type": "address"
        }
      ],
      "name": "AddSupportToken",
      "type": "event"
    },
    {
      "anonymous": false,
      "inputs": [
        {
          "indexed": false,
          "internalType": "uint256",
          "name": "amount",
          "type": "uint256"
        },
        {
          "indexed": false,
          "internalType": "address",
          "name": "tokenAddress",
          "type": "address"
        }
      ],
      "name": "Deposit",
      "type": "event"
    },
    {
      "anonymous": false,
      "inputs": [
        {
          "indexed": true,
          "internalType": "address",
          "name": "previousOwner",
          "type": "address"
        },
        {
          "indexed": true,
          "internalType": "address",
          "name": "newOwner",
          "type": "address"
        }
      ],
      "name": "OwnershipTransferred",
      "type": "event"
    },
    {
      "anonymous": false,
      "inputs": [
        {
          "indexed": false,
          "internalType": "address",
          "name": "tokenAddress",
          "type": "address"
        }
      ],
      "name": "RemoveSupportToken",
      "type": "event"
    },
    {
      "anonymous": false,
      "inputs": [
        {
          "indexed": false,
          "internalType": "uint256",
          "name": "amount",
          "type": "uint256"
        },
        {
          "indexed": false,
          "internalType": "address",
          "name": "tokenAddress",
          "type": "address"
        },
        {
          "indexed": false,
          "internalType": "address",
          "name": "toAddress",
          "type": "address"
        }
      ],
      "name": "Withdraw",
      "type": "event"
    },
    {
      "inputs": [
        {
          "internalType": "address",
          "name": "_tokenAddress",
          "type": "address"
        }
      ],
      "name": "addSupportToken",
      "outputs": [],
      "stateMutability": "nonpayable",
      "type": "function"
    },
    {
      "inputs": [
        {
          "internalType": "address",
          "name": "_tokenAddress",
          "type": "address"
        }
      ],
      "name": "checkIsSupportToken",
      "outputs": [
        {
          "internalType": "bool",
          "name": "",
          "type": "bool"
        }
      ],
      "stateMutability": "view",
      "type": "function"
    },
    {
      "inputs": [
        {
          "components": [
            {
              "internalType": "uint256",
              "name": "amount",
              "type": "uint256"
            },
            {
              "internalType": "address",
              "name": "tokenAddress",
              "type": "address"
            }
          ],
          "internalType": "struct DepositParams",
          "name": "params",
          "type": "tuple"
        }
      ],
      "name": "deposit",
      "outputs": [],
      "stateMutability": "nonpayable",
      "type": "function"
    },
    {
      "inputs": [],
      "name": "owner",
      "outputs": [
        {
          "internalType": "address",
          "name": "",
          "type": "address"
        }
      ],
      "stateMutability": "view",
      "type": "function"
    },
    {
      "inputs": [
        {
          "internalType": "address",
          "name": "_tokenAddress",
          "type": "address"
        }
      ],
      "name": "removeSupportToken",
      "outputs": [],
      "stateMutability": "nonpayable",
      "type": "function"
    },
    {
      "inputs": [],
      "name": "renounceOwnership",
      "outputs": [],
      "stateMutability": "nonpayable",
      "type": "function"
    },
    {
      "inputs": [
        {
          "internalType": "address",
          "name": "newOwner",
          "type": "address"
        }
      ],
      "name": "transferOwnership",
      "outputs": [],
      "stateMutability": "nonpayable",
      "type": "function"
    },
    {
      "inputs": [
        {
          "components": [
            {
              "internalType": "uint256",
              "name": "amount",
              "type": "uint256"
            },
            {
              "internalType": "address",
              "name": "tokenAddress",
              "type": "address"
            },
            {
              "internalType": "address",
              "name": "toAddress",
              "type": "address"
            }
          ],
          "internalType": "struct WithdrawParams",
          "name": "params",
          "type": "tuple"
        }
      ],
      "name": "withdraw",
      "outputs": [],
      "stateMutability": "nonpayable",
      "type": "function"
    }
  ],
  "bytecode": "0x608060405234801561001057600080fd5b5033600073ffffffffffffffffffffffffffffffffffffffff168173ffffffffffffffffffffffffffffffffffffffff16036100845760006040517f1e4fbdf700000000000000000000000000000000000000000000000000000000815260040161007b919061019e565b60405180910390fd5b6100938161009960201b60201c565b506101b9565b60008060009054906101000a900473ffffffffffffffffffffffffffffffffffffffff169050816000806101000a81548173ffffffffffffffffffffffffffffffffffffffff021916908373ffffffffffffffffffffffffffffffffffffffff1602179055508173ffffffffffffffffffffffffffffffffffffffff168173ffffffffffffffffffffffffffffffffffffffff167f8be0079c531659141344cd1fd0a4f28419497f9722a3daafe3b4186f6b6457e060405160405180910390a35050565b600073ffffffffffffffffffffffffffffffffffffffff82169050919050565b60006101888261015d565b9050919050565b6101988161017d565b82525050565b60006020820190506101b3600083018461018f565b92915050565b61103f806101c86000396000f3fe608060405234801561001057600080fd5b50600436106100885760003560e01c80638da5cb5b1161005b5780638da5cb5b146100ff578063e2769cfa1461011d578063f2fde38b14610139578063f9a512451461015557610088565b806318f54e141461008d5780631c68bf00146100bd57806324e2ad34146100d9578063715018a6146100f5575b600080fd5b6100a760048036038101906100a29190610bc3565b610171565b6040516100b49190610c0b565b60405180910390f35b6100d760048036038101906100d29190610bc3565b6101c7565b005b6100f360048036038101906100ee9190610c4a565b61035c565b005b6100fd610554565b005b610107610568565b6040516101149190610c86565b60405180910390f35b61013760048036038101906101329190610bc3565b610591565b005b610153600480360381019061014e9190610bc3565b61071d565b005b61016f600480360381019061016a9190610cc0565b6107a3565b005b6000600160008373ffffffffffffffffffffffffffffffffffffffff1673ffffffffffffffffffffffffffffffffffffffff16815260200190815260200160002060009054906101000a900460ff169050919050565b6101cf61086a565b600073ffffffffffffffffffffffffffffffffffffffff168173ffffffffffffffffffffffffffffffffffffffff160361023e576040517f08c379a000000000000000000000000000000000000000000000000000000000815260040161023590610d4a565b60405180910390fd5b600160008273ffffffffffffffffffffffffffffffffffffffff1673ffffffffffffffffffffffffffffffffffffffff16815260200190815260200160002060009054906101000a900460ff16156102cb576040517f08c379a00000000000000000000000000000000000000000000000000000000081526004016102c290610db6565b60405180910390fd5b60018060008373ffffffffffffffffffffffffffffffffffffffff1673ffffffffffffffffffffffffffffffffffffffff16815260200190815260200160002060006101000a81548160ff0219169083151502179055507f883922dce74c7da120a6bf7a478f8faeaebdce7c4c49561ea9b9e682bec7aecf816040516103519190610c86565b60405180910390a150565b600160008260200160208101906103739190610bc3565b73ffffffffffffffffffffffffffffffffffffffff1673ffffffffffffffffffffffffffffffffffffffff16815260200190815260200160002060009054906101000a900460ff166103fa576040517f08c379a00000000000000000000000000000000000000000000000000000000081526004016103f190610e22565b60405180910390fd5b600081602001602081019061040f9190610bc3565b905060008173ffffffffffffffffffffffffffffffffffffffff1663dd62ed3e33306040518363ffffffff1660e01b815260040161044e929190610e42565b602060405180830381865afa15801561046b573d6000803e3d6000fd5b505050506040513d601f19601f8201168201806040525081019061048f9190610ea1565b905082600001358110156104cf576040517f689c227100000000000000000000000000000000000000000000000000000000815260040160405180910390fd5b610500333085600001358573ffffffffffffffffffffffffffffffffffffffff166108f1909392919063ffffffff16565b7f4bcc17093cdf51079c755de089be5a85e70fa374ec656c194480fbdcda224a5383600001358460200160208101906105399190610bc3565b604051610547929190610edd565b60405180910390a1505050565b61055c61086a565b6105666000610973565b565b60008060009054906101000a900473ffffffffffffffffffffffffffffffffffffffff16905090565b61059961086a565b600073ffffffffffffffffffffffffffffffffffffffff168173ffffffffffffffffffffffffffffffffffffffff1603610608576040517f08c379a00000000000000000000000000000000000000000000000000000000081526004016105ff90610d4a565b60405180910390fd5b600160008273ffffffffffffffffffffffffffffffffffffffff1673ffffffffffffffffffffffffffffffffffffffff16815260200190815260200160002060009054906101000a900460ff16610694576040517f08c379a000000000000000000000000000000000000000000000000000000000815260040161068b90610f52565b60405180910390fd5b600160008273ffffffffffffffffffffffffffffffffffffffff1673ffffffffffffffffffffffffffffffffffffffff16815260200190815260200160002060006101000a81549060ff02191690557f551de45239d712f5b4a368abb20743ac18d44b3063341fe993cec82f7eb8dae2816040516107129190610c86565b60405180910390a150565b61072561086a565b600073ffffffffffffffffffffffffffffffffffffffff168173ffffffffffffffffffffffffffffffffffffffff16036107975760006040517f1e4fbdf700000000000000000000000000000000000000000000000000000000815260040161078e9190610c86565b60405180910390fd5b6107a081610973565b50565b6107ab61086a565b60008160200160208101906107c09190610bc3565b90506108038260400160208101906107d89190610bc3565b83600001358373ffffffffffffffffffffffffffffffffffffffff16610a379092919063ffffffff16565b7fa51bb7c2c2049ab09fbff5561211a4ee34b3b4cee74c42f1bce5461cd4ef3f8d826000013583602001602081019061083c9190610bc3565b84604001602081019061084f9190610bc3565b60405161085e93929190610f72565b60405180910390a15050565b610872610ab6565b73ffffffffffffffffffffffffffffffffffffffff16610890610568565b73ffffffffffffffffffffffffffffffffffffffff16146108ef576108b3610ab6565b6040517f118cdaa70000000000000000000000000000000000000000000000000000000081526004016108e69190610c86565b60405180910390fd5b565b61096d848573ffffffffffffffffffffffffffffffffffffffff166323b872dd86868660405160240161092693929190610fa9565b604051602081830303815290604052915060e01b6020820180517bffffffffffffffffffffffffffffffffffffffffffffffffffffffff8381831617835250505050610abe565b50505050565b60008060009054906101000a900473ffffffffffffffffffffffffffffffffffffffff169050816000806101000a81548173ffffffffffffffffffffffffffffffffffffffff021916908373ffffffffffffffffffffffffffffffffffffffff1602179055508173ffffffffffffffffffffffffffffffffffffffff168173ffffffffffffffffffffffffffffffffffffffff167f8be0079c531659141344cd1fd0a4f28419497f9722a3daafe3b4186f6b6457e060405160405180910390a35050565b610ab1838473ffffffffffffffffffffffffffffffffffffffff1663a9059cbb8585604051602401610a6a929190610fe0565b604051602081830303815290604052915060e01b6020820180517bffffffffffffffffffffffffffffffffffffffffffffffffffffffff8381831617835250505050610abe565b505050565b600033905090565b600080602060008451602086016000885af180610ae1576040513d6000823e3d81fd5b3d925060005191505060008214610afc576001811415610b18565b60008473ffffffffffffffffffffffffffffffffffffffff163b145b15610b5a57836040517f5274afe7000000000000000000000000000000000000000000000000000000008152600401610b519190610c86565b60405180910390fd5b50505050565b600080fd5b600073ffffffffffffffffffffffffffffffffffffffff82169050919050565b6000610b9082610b65565b9050919050565b610ba081610b85565b8114610bab57600080fd5b50565b600081359050610bbd81610b97565b92915050565b600060208284031215610bd957610bd8610b60565b5b6000610be784828501610bae565b91505092915050565b60008115159050919050565b610c0581610bf0565b82525050565b6000602082019050610c206000830184610bfc565b92915050565b600080fd5b600060408284031215610c4157610c40610c26565b5b81905092915050565b600060408284031215610c6057610c5f610b60565b5b6000610c6e84828501610c2b565b91505092915050565b610c8081610b85565b82525050565b6000602082019050610c9b6000830184610c77565b92915050565b600060608284031215610cb757610cb6610c26565b5b81905092915050565b600060608284031215610cd657610cd5610b60565b5b6000610ce484828501610ca1565b91505092915050565b600082825260208201905092915050565b7f546f6b656e20616464726573732063616e6e6f74206265207a65726f00000000600082015250565b6000610d34601c83610ced565b9150610d3f82610cfe565b602082019050919050565b60006020820190508181036000830152610d6381610d27565b9050919050565b7f4475706c696361746520546f6b656e0000000000000000000000000000000000600082015250565b6000610da0600f83610ced565b9150610dab82610d6a565b602082019050919050565b60006020820190508181036000830152610dcf81610d93565b9050919050565b7f496e76616c696420546f6b656e00000000000000000000000000000000000000600082015250565b6000610e0c600d83610ced565b9150610e1782610dd6565b602082019050919050565b60006020820190508181036000830152610e3b81610dff565b9050919050565b6000604082019050610e576000830185610c77565b610e646020830184610c77565b9392505050565b6000819050919050565b610e7e81610e6b565b8114610e8957600080fd5b50565b600081519050610e9b81610e75565b92915050565b600060208284031215610eb757610eb6610b60565b5b6000610ec584828501610e8c565b91505092915050565b610ed781610e6b565b82525050565b6000604082019050610ef26000830185610ece565b610eff6020830184610c77565b9392505050565b7f546f6b656e206164647265737320646f6573206e6f7420657869737400000000600082015250565b6000610f3c601c83610ced565b9150610f4782610f06565b602082019050919050565b60006020820190508181036000830152610f6b81610f2f565b9050919050565b6000606082019050610f876000830186610ece565b610f946020830185610c77565b610fa16040830184610c77565b949350505050565b6000606082019050610fbe6000830186610c77565b610fcb6020830185610c77565b610fd86040830184610ece565b949350505050565b6000604082019050610ff56000830185610c77565b6110026020830184610ece565b939250505056fea2646970667358221220ec2c63a1edd7005dd6b5b62154b142d6e4fc0d55820eda226a168516f3c3299264736f6c63430008180033",
  "linkReferences": {},
  "deployedLinkReferences": {}
}